:100000000C94F0000C9418010C9418010C94180135
:100010000C9418010C9418010C945E090C941801AE
:100020000C9418010C9418010C9493060C943D0741
:100030000C944C060C9418010C9418010C941801A3
:100040000C94F3040C9418010C94DC030C94B60388
:100050000C9418010C9418010C9418010C941801BC
:100060000C9418010C94180100407A10F35A00A067
:10007000724E18090010A5D4E80000E87648170071
:1000800000E40B54020000CA9A3B000000E1F505B1
:10009000000080969800000040420F000000A086FB
:1000A00001000000102700000000E803000000002D
:1000B0006400000000000A000000000001000000D1
:1000C00000002C76D888DC674F0823DFC1DFAE59EB
:1000D000E1B1B796E5E3E453C63AE651997696E87E
:1000E000E6C28426EB898C9B62ED407C6FFCEFBC02
:1000F0009C9F40F2BAA56FA5F490055A2AF75C932D
:100100006B6CF9676DC11BFCE0E40D47FEF520E662
:10011000B500D0ED902E0300943577050080841E45
:10012000080000204E0A000000C80C333333330FA0
:10013000986E12831141EF8D2114893BE65516CF3D
:10014000FEE6DB18D1844B381BF77C1D901DA4BB49
:10015000E424203284725E228100C9F124ECA1E5FE
:100160003D27005EBCE2613FDD83C29C7E20A3FD93
:100170001F41009D23BE46DB65F88C11AF32CA5784
:10018000E97400000000240027002A00000000009D
:10019000250028002B0000000008000201000003D9
:1001A0000407000000000000000000000000230021
:1001B00026002900040404040404040402020202C8
:1001C000020203030303030301020408102040801A
:1001D000010204081020010204081020F411700B21
:1001E00011241FBECFEFD8E0DEBFCDBF23E0A8E9CA
:1001F000B1E001C01D92AE38B207E1F711E0A0E016
:10020000B1E0E2EEF8E302C005900D92A839B10723
:10021000D9F710E0CFEED0E004C02197FE010E9494
:10022000AA17CE3ED107C9F70E948E0B0C94641C0E
:100230000C940000CF92DF92EF92FF920F931F93E6
:10024000CF93DF936C017A018B01C0E0D0E0CE1533
:10025000DF0589F0D8016D918D01D601ED91FC91FA
:100260000190F081E02DC6010995892B11F47E01E2
:1002700002C02196ECCFC701DF91CF911F910F9162
:10028000FF90EF90DF90CF900895FC01538D448D47
:10029000252F30E0842F90E0821B930B541710F031
:1002A000CF96089501970895FC01918D828D98173E
:1002B00061F0828DDF01A80FB11D5D968C91928D4A
:1002C0009F5F9F73928F90E008958FEF9FEF089547
:1002D000FC01918D828D981731F0828DE80FF11D10
:1002E000858D90E008958FEF9FEF0895FC01918D2B
:1002F000228D892F90E0805C9F4F821B91098F7324
:10030000992708958FEB92E00E94760121E0892BD6
:1003100009F420E0822F0895FC01848DDF01A80FED
:10032000B11DA35ABF4F2C91848D90E001968F731D
:100330009927848FA689B7892C93A089B1898C913C
:1003400080648C93938D848D981306C00288F38902
:10035000E02D80818F7D80830895EF92FF920F932F
:100360001F93CF93DF93EC0181E0888F9B8D8C8D61
:10037000981305C0E889F989808185FD24C0F62E8F
:100380000B8D10E00F5F1F4F0F731127E02E8C8D28
:10039000E8120CC00FB607FCFACFE889F989808112
:1003A00085FFF5CFCE010E948C01F1CF8B8DFE0130
:1003B000E80FF11DE35AFF4FF0820B8FEA89FB89AA
:1003C0008081806207C0EE89FF896083E889F989AE
:1003D00080818064808381E090E0DF91CF911F91E4
:1003E0000F91FF90EF900895CF93DF93EC01888DEC
:1003F0008823C9F0EA89FB89808185FD05C0A88929
:10040000B9898C9186FD0FC00FB607FCF5CF8081AE
:1004100085FFF2CFA889B9898C9185FFEDCFCE01F8
:100420000E948C01E7CFDF91CF91089580E090E0AA
:10043000892B29F00E94820181110C9400000895FB
:100440003FB7F8948091500290915102A0915202CE
:10045000B091530226B5A89B05C02F3F19F0019615
:10046000A11DB11D3FBFBA2FA92F982F8827820F3A
:10047000911DA11DB11DBC01CD0142E0660F771F8A
:10048000881F991F4A95D1F70895509158024091BD
:100490005702852F90E0242F30E0541710F4805B32
:1004A0009F4F821B930B089580915802E091570251
:1004B0008E1751F0EF5FE03508F0E0E0F0E0E1503A
:1004C000FE4F808190E008958FEF9FEF0895809117
:1004D000580290915702891769F09F5F903508F094
:1004E00090E0E92FF0E0E150FE4F808190935702B9
:1004F00090E008958FEF9FEF08958091560281114B
:10050000FCCF0895809155028F5F843408F080E01D
:10051000909154029817E1F32FB7F89490915602F6
:10052000992341F0E82FF0E0EB54FE4F6083809375
:1005300055021DC081E0809356026093FA0110922B
:10054000F90182E086BB80916F00826080936F002A
:10055000809180008F7380688093800080918400F8
:1005600090918500409690938900809388002FBFDA
:1005700081E090E00895089580E090E00895FB0107
:10058000DC0111961C921E9213961C921E921297D9
:1005900015961C921E9214978617970749F0608152
:1005A00071816115710521F0448155810C94D30945
:1005B00008950F931F93CF93DF93EC018881998166
:1005C000009729F02A813B812617370788F48B0191
:1005D0006F5F7F4F0E94DD18009761F099838883D9
:1005E0001B830A832C813D81232B11F4FC01108293
:1005F00081E001C080E0DF91CF911F910F910895BC
:10060000CF93DF93EC0188819981009711F00E94CC
:100610004518198218821D821C821B821A82DF9162
:10062000CF910895FC01808191810C944518EF923F
:10063000FF920F931F93CF93DF93CDB7DEB7A197B0
:100640000FB6F894DEBF0FBECDBF7C01CB01BA015F
:10065000F70111821082138212821582148242E005
:10066000420F8E010F5F1F4F0E948912BC01C7010C
:100670000E94F409A1960FB6F894DEBF0FBECDBF5D
:10068000DF91CF911F910F91FF90EF9008950F93FD
:100690001F93CF93DF93CDB7DEB7A1970FB6F89432
:1006A000DEBF0FBECDBF8C01CB01BA01F8011182B4
:1006B0001082138212821582148230E0AE014F5FE5
:1006C0005F4F0E94A912BE016F5F7F4FC8010E9459
:1006D000F409A1960FB6F894DEBF0FBECDBFDF912F
:1006E000CF911F910F9108950F931F93CF93DF9395
:1006F000CDB7DEB729970FB6F894DEBF0FBECDBFDA
:100700008C01862FF80111821082138212821582C9
:10071000148250E0BE016F5F7F4F90E00E94D612BE
:10072000BE016F5F7F4FC8010E94F40929960FB682
:10073000F894DEBF0FBECDBFDF91CF911F910F9117
:100740000895FC0111821082138212821582148294
:100750006115710551F0FB0101900020E9F7319717
:10076000AF01461B570B0C94D30908951F920F92AB
:100770000FB60F9211242F933F934F935F936F9374
:100780007F938F939F93AF93BF93EF93FF938FEBE1
:1007900092E00E948C01FF91EF91BF91AF919F91E8
:1007A0008F917F916F915F914F913F912F910F901A
:1007B0000FBE0F901F9018951F920F920FB60F92B9
:1007C00011242F938F939F93EF93FF93E091CF0288
:1007D000F091D0028081E091D502F091D60282FDA5
:1007E00012C090818091D8028F5F8F732091D902BF
:1007F000821751F0E091D802F0E0E154FD4F958F5F
:100800008093D80201C08081FF91EF919F918F91D9
:100810002F910F900FBE0F901F90189590E0FC0144
:10082000EA56FE4F3491FC01E853FE4F2491FC013F
:10083000EC54FE4FE491EE2309F43BC0332339F12D
:10084000333091F038F43130A9F0323001F584B50D
:100850008F7D12C0373091F03830A1F03430B9F4C8
:10086000809180008F7D03C0809180008F7780937E
:1008700080000DC084B58F7784BD09C08091B00021
:100880008F7703C08091B0008F7D8093B000F0E03F
:10089000EE0FFF1FE457FE4FA591B4918FB7F89468
:1008A000EC91611103C020952E2301C02E2B2C93B7
:1008B0008FBF0895CF93DF9390E0FC01E853FE4F84
:1008C0002491FC01EC54FE4F8491882361F190E067
:1008D000880F991FFC01EE57FE4FC591D491FC0182
:1008E000E457FE4FA591B491611109C09FB7F894E8
:1008F0008881209582238883EC912E230BC062305F
:1009000061F49FB7F8943881822F80958323888380
:10091000EC912E2B2C939FBF06C08FB7F894E881E3
:100920002E2B28838FBFDF91CF9108958E3008F052
:100930008E508770806480937C0080917A00806400
:1009400080937A0080917A0086FDFCCF80917800B8
:100950002091790090E0922B08958F929F92AF9210
:10096000BF92CF92DF92EF92FF926B017C010E94C7
:1009700020024B015C01C114D104E104F104F1F047
:100980000E942002DC01CB0188199909AA09BB0940
:10099000883E9340A105B10570F321E0C21AD10849
:1009A000E108F10888EE880E83E0981EA11CB11CB6
:1009B000C114D104E104F10419F7DDCFFF90EF90E9
:1009C000DF90CF90BF90AF909F908F9008952FB7FA
:1009D000F89460916002709161028091620290913E
:1009E00063022FBF08951F920F920FB60F9211242A
:1009F0002F933F938F939F93AF93BF938091600208
:100A000090916102A0916202B091630230914F0215
:100A100023E0230F2D3720F40196A11DB11D05C041
:100A200026E8230F0296A11DB11D20934F0280934B
:100A3000600290936102A0936202B093630280917E
:100A4000500290915102A0915202B091530201962E
:100A5000A11DB11D8093500290935102A0935202A8
:100A6000B0935302BF91AF919F918F913F912F917E
:100A70000F900FBE0F901F901895DC0180E0615021
:100A800090F09D919827E92FEF70F0E0EE59FE4F1E
:100A9000249192959F70E92FF0E0EE58FE4FE4917B
:100AA0008E2F8227ECCF0895FC0190810180F28186
:100AB000E02DF8948181892B81832281892F809573
:100AC00028232283A7E0B0E01197F1F72181822348
:100AD0008183A3E2B0E01197F1F780817894EFEC85
:100AE000F0E03197F1F7982381E009F480E0089570
:100AF000FC0190810180F281E02D892F809560FFBB
:100B000012C0F8942281822382838181892B818380
:100B1000A3E2B0E01197F1F78281982B9283789449
:100B200087ED90E011C0F894228182238283818135
:100B3000892B8183AFEFB0E01197F1F78281982B79
:100B4000928378948FE090E00197F1F70895CF9227
:100B5000DF92EF92FF920F931F93CF93DF931F9239
:100B6000CDB7DEB76C01E62E08E010E0FF24F39469
:100B700061E08F2D8E2109F460E0C60149830E9457
:100B80007805FF0C0150110949810115110581F704
:100B9000411115C0F894D6011196ED91FC91129770
:100BA00091818C918095892381831196ED91FC919F
:100BB000129792818C9180958923828378940F90EB
:100BC000DF91CF911F910F91FF90EF90DF90CF9029
:100BD0000895CF92DF92EF92FF920F931F93CF93DE
:100BE000DF931F92CDB7DEB78C01F62E40E065E5AE
:100BF00079830E94A705CF2C7981D72E760188E0D2
:100C0000E80EF11CF60161916F0140E0C8010E94FD
:100C1000A705CE14DF04B1F70F90DF91CF911F919C
:100C20000F91FF90EF90DF90CF900895FC0190819D
:100C30000180F281E02DF8948181292F2095822373
:100C4000818378948DE743E050E0815021F1DA010F
:100C50001197F1F730813923C1F3F894828182230F
:100C600082838181892B81837894ABE7B7E01197E8
:100C7000F1F7F894818128232183A3E1B1E0119752
:100C8000F1F78081982381E009F080E07894E3E631
:100C9000F6E03197F1F708951F920F920FB60F9279
:100CA00011242F938F939F93EF93FF9380916F0065
:100CB0008B7F80936F00809181008F7B8093810078
:100CC000809159022091FE0120589091FD018930B8
:100CD00020F49695922B8F5FFACF9093FD0180912F
:100CE00058028F5F803508F080E02091570282170C
:100CF00039F0E82FF0E0E150FE4F908380935802E6
:100D000010925902809181008F7B80938100109214
:100D1000FE01FF91EF919F918F912F910F900FBE48
:100D20000F901F9018951F920F920FB60F921124DB
:100D30002F933F934F935F936F937F938F939F93E3
:100D4000AF93BF93EF93FF938091860090918700BC
:100D50004091FE0120918100442331F02F7B2093AC
:100D600081001092FE0106C020642093810020E8DB
:100D70002093FE0130915902311125C041116CC000
:100D800020915A0230915B02280F391F30938B005B
:100D900020938A0024E026BB20916F0024602093DA
:100DA0006F0020915C0230915D02820F931F369597
:100DB0002795820F931F9093FC018093FB0181E0A4
:100DC0008093590249C04091FB015091FC01609110
:100DD0005C0270915D02DB01A095B095E091FE018F
:100DE0002091FD01841B950BA817B90768F1269582
:100DF0002E2B460F571F3F5F861B970B3930A0F3F2
:100E00002093FD0180916F008B7F80936F00809114
:100E100058028F5F803508F080E090915702891763
:100E200049F0E82FF0E09091FD01E150FE4F9083F2
:100E300080935802809181008F7B80938100109273
:100E4000FE011092590208C02093FD015093FC014D
:100E50004093FB0130935902FF91EF91BF91AF9105
:100E60009F918F917F916F915F914F913F912F91C2
:100E70000F900FBE0F901F9018951F920F920FB6F4
:100E80000F9211242F933F934F935F936F937F9310
:100E90008F939F93EF93FF93809156026091FA0195
:100EA000209188003091890040915C0250915D0250
:100EB0009091F9018A30F8F4240F351F893019F028
:100EC000762F717001C071E066958F5F791791F38D
:100ED00090918000772311F0906C02C09F7390680E
:100EE0009093800030938900209388007093F901DB
:100EF0006093FA014AC090915502E09154029E130A
:100F000019C08A3051F48BE080935602240F351FAC
:100F100030938900209388003AC010925602809145
:100F200080008F738093800080916F008D7F80930D
:100F30006F002DC0EF5FE43408F0E0E0E09354026E
:100F4000F0E0EB54FE4F90819093FA011092F9017A
:100F5000909180009F739068909380008A3059F43C
:100F600080915C0290915D02280F391F30938900B7
:100F70002093880009C0809184009091850040965C
:100F8000909389008093880081E080935602FF91BE
:100F9000EF919F918F917F916F915F914F913F91D1
:100FA0002F910F900FBE0F901F901895CF93DF9346
:100FB000CDB7DEB768970FB6F894DEBF0FBECDBFD2
:100FC0000E94E704AB01BC012AE0CE0143960E94D7
:100FD00047036AAD7BADCE010D960E94A1036091DF
:100FE00064024AE0CE0107960E94740362E371E056
:100FF000CE0101960E94A103BE01695F7F4FCE0121
:1010000001960E94C00960E471E00E94A709BE0138
:10101000635F7F4F0E94C00968E371E00E94A709E7
:10102000BE016D5E7F4F0E94C0096BE371E00E94BC
:10103000A7090E94350BCE0101960E941203CE0132
:1010400007960E941203CE010D960E941203CE0154
:1010500043960E9412034AE06F8DCE0101960E94D2
:101060007403BE016F5F7F4FCE0107960E94BF02DF
:1010700066E371E0CE0107960E94A7090E94350B36
:10108000CE0107960E941203CE0101960E94120320
:101090004AE068A1CE0101960E947403BE016F5F11
:1010A0007F4FCE0107960E94BF0266E371E0CE013A
:1010B00007960E94A7090E94350BCE0107960E9451
:1010C0001203CE0101960E9412034AE069A1CE01EB
:1010D00001960E947403BE016F5F7F4FCE01079699
:1010E0000E94BF0266E371E0CE0107960E94A70945
:1010F0000E94350BCE0107960E941203CE01019685
:101100000E9412034AE06AA1CE0101960E94740374
:10111000BE016F5F7F4FCE0107960E94BF0266E35C
:1011200071E0CE0107960E94A7090E94350BCE01FF
:1011300007960E941203CE0101960E9412034AE014
:101140006BA1CE0101960E947403BE016F5F7F4FB9
:10115000CE0107960E94BF0266E371E0CE010796BA
:101160000E94A7090E94350BCE0107960E94120328
:10117000CE0101960E9412034CA15DA16EA17FA138
:101180002AE0CE0101960E944703BE016F5F7F4FA8
:10119000CE0107960E94BF026EE371E0CE01079672
:1011A0000E94A7090E94350BCE0107960E941203E8
:1011B000CE0101960E94120340E150E0BE01685D3D
:1011C0007F4F8FEB92E00E941A0142E050E062E410
:1011D00071E08FEB92E00E941A0168960FB6F894C6
:1011E000DEBF0FBECDBFDF91CF910895CF93DF93C8
:1011F00000D0CDB7DEB79DE0909398019AE0909330
:10120000990180939A018091640280939B0180915F
:101210005F0280939C0160939D0180915E0291E04A
:10122000980F90935E0280939E0149835A830E9497
:10123000E70460939F017093A0018093A1019093B4
:10124000A2014981E42F5A81F52FA3EAB1E0CF0131
:10125000409621912D93E817F907D9F78DE08093F7
:10126000B3018AE08093B4014DE150E068E971E098
:101270008CE593E00E941A0185E491E09F938F939F
:101280008DB79EB74D970FB6F8949EBF0FBE8DBF1A
:10129000ADB7BEB711968DE1E8E9F1E001900D928E
:1012A0008A95E1F70E94D6070FB6F894DEBF0FBE0D
:1012B000CDBF0F900F90DF91CF9108951F920F92A5
:1012C0000FB60F9211248F93F8940FB6F894A89547
:1012D00080916000886180936000109260000FBE72
:1012E00078948F910F900FBE0F901F9018950E94C9
:1012F000A719EF92FF920F931F93CF93DF93FC01F7
:10130000248135816115710511F480E019C0411502
:101310005105A9F07B01EC018A01020F131FB801EE
:101320000E94D902882389F3288139818C819D818B
:10133000B701820F931F0E94BC191D830C8381E0AB
:10134000DF91CF911F910F91FF90EF900895CF9370
:10135000DF93EC016115710561F0FB010190002044
:10136000E9F73197AF01461B570B0E9479098111AC
:1013700003C0CE010E940003CE01DF91CF910895FA
:10138000CF93DF93EC01FB01448155816081718132
:101390000E947909811103C0CE010E940003CE0191
:1013A000DF91CF910895EF92FF920F931F93CF9308
:1013B000DF93EC017B018A01BA010E94D9028111FD
:1013C00004C0CE010E94000307C01D830C83B70137
:1013D000888199810E94BC19CE01DF91CF911F9124
:1013E0000F91FF90EF900895CF93DF93EC0161157B
:1013F000710559F0FB0101900020E9F73197AF0129
:10140000461B570B0E94D30902C00E940003CE0165
:10141000DF91CF9108958F929F92AF92BF92CF921A
:10142000DF92EF92FF920F931F93CF93DF938C0184
:10143000EB0180916E0390916F030E941606882342
:1014400009F43DC0B80180916E0390916F030E9432
:10145000E90540E06EEB80916E0390916F030E946E
:10146000A7058E015E0189E0A80EB11C80906E0375
:1014700090906F0388E0C82ED12CEE24E394F12CD9
:10148000C4010E9454058111FE28EE0CE1E0CE1A41
:10149000D108B1F7F801F1928F01EA15FB0531F798
:1014A00080916E0390916F030E941606813039F48B
:1014B00068E0CE010E943D0591E02885821390E00E
:1014C000892FDF91CF911F910F91FF90EF90DF90C7
:1014D000CF90BF90AF909F908F900895AF92BF92A2
:1014E000CF92DF92EF92FF920F931F93CF93DF93F0
:1014F0001F92CDB7DEB75C01D62EE72EFC018585A5
:10150000811105C0C5010E941606811106C0F501B2
:1015100013861586148680E065C040E060EFC50143
:101520000E94A70501E0F12CC12C11E0C5010E9429
:101530005405682FC50169830E9454056981613093
:1015400019F48130B9F433C04F2D50E068131BC03B
:10155000F5018385181730F4E40FF51F838180238C
:1015600049F402C0181731F060E0193058F4F50161
:10157000148708C0F501EF0DF11D8381802B838353
:1015800061E009C0C12EF501E40FF51F9381802FA2
:10159000809589238383C5010E9478051F5F000F12
:1015A00011F4F39401E0F7E0FF1508F0BFCF113418
:1015B00008F4ADCFF501C386C11002C081E0858774
:1015C000F5018381882309F4A2CFD5011396ED2D6F
:1015D000FE2D9501255F3F4F8D918193A217B30793
:1015E000D9F781E00F90DF91CF911F910F91FF907C
:1015F000EF90DF90CF90BF90AF900895FF920F9340
:101600001F93CF93DF938C01F62EE0916E03F09140
:101610006F03138615861486DF011B9633961E9280
:10162000AE17BF07E1F7C0E0B80180916E0390915B
:101630006F030E946E0AD82F811102C0D0E00EC045
:10164000CF1108C067E0C8010E943D05F8019781ED
:10165000891721F0CF5FFC1688F3E6CF8D2FDF913D
:10166000CF911F910F91FF900895FC014481558106
:10167000608171818FEB92E00C941A01CF93DF931C
:10168000CDB7DEB729970FB6F894DEBF0FBECDBF3A
:10169000FC0120812031D1F0BE016F5F7F4F0E949D
:1016A0000B0A882389F08D818F3361F020F48F310C
:1016B00059F489E00CC08F3519F08F3739F004C028
:1016C0008BE005C08AE003C080E001C08CE0299671
:1016D0000FB6F894DEBF0FBECDBFDF91CF91089556
:1016E00084E291E090935D0380935C0380916F00AE
:1016F0008B7F80936F0080916F008F7D80936F0050
:101700008091570280935802809156028111FCCF3C
:1017100080916F008D7F80936F000895CF93DF934A
:10172000CDB7DEB7C554D1090FB6F894DEBF0FBEF2
:10173000CDBF789484B5826084BD84B5816084BD5A
:1017400085B5826085BD85B5816085BD80916E005F
:10175000816080936E001092810080918100826090
:1017600080938100809181008160809381008091CD
:1017700080008160809380008091B10084608093BC
:10178000B1008091B00081608093B00080917A00B8
:10179000846080937A0080917A00826080937A00DE
:1017A00080917A00816080937A0080917A008068CD
:1017B00080937A001092C10010E061E0812F0E94B6
:1017C0005A041F5F1431C9F788E18093600081E2F9
:1017D000809360008091600080648093600083B794
:1017E000846083BF83B7816083BF1092640281E00D
:1017F00080935F021092A1028093A00210925E0279
:1018000010927B0280E090E0FC01E756FD4F1082D1
:10181000019687309105C1F761E08DE00E945A047E
:1018200061E084E00E945A0461E084E00E940E04BA
:1018300060E570E080E090E00E94AD0410926F00DF
:101840001092800082E88093810081E493E090937D
:101850005D0280935C0289E19EE190935B0280933C
:101860005A0262E088E00E945A0461E089E00E9426
:101870000E0461E089E00E945A041092590210920D
:10188000580210925702109256021092550210926E
:10189000540280E286BB80936F0061E081E10E9488
:1018A0005A0461E08AE00E945A0461E082E00E94EA
:1018B0005A04E0916E03F0916F0313861586148627
:1018C000DF011B9633961E92AE17BF07E1F7109209
:1018D0006C0310926D038E010F5F1F4FFF24F39472
:1018E000B80180916E0390916F030E946E0A882365
:1018F00009F459C067E0C8010E943D059885891325
:10190000EFCF80916803811125C080916E03909183
:101910006F030E941606B80180916E0390916F03C9
:101920000E94E90540E064EB80916E0390916F03A3
:101930000E94A70580916E0390916F030E94540549
:10194000E82E80916E0390916F030E941606EE20A0
:1019500009F459C4E0906903C8010E943E0B8E153A
:1019600018F48091690303C0C8010E943E0B809364
:10197000690380916C038F5F80936C038981883247
:1019800061F030F4803149F0823209F0A9CF05C00E
:101990008B3319F0823409F0A3CF80916D038F5FF0
:1019A00080936D039DCF60E089E692E00E94FE0A7D
:1019B000811110C043E250E068E471E08FEB92E0E7
:1019C0000E941A0142E050E062E471E08FEB92E085
:1019D0000E941A0189E692E00E943E0B893009F4C8
:1019E0009CC0B80189E692E00E940B0A882309F4A2
:1019F00094C080916902803109F48FC08FE18D839A
:101A000080916E0390916F030E94160669E672E062
:101A100080916E0390916F030E94E90540E06EE4AF
:101A200080916E0390916F030E94A70540E06B8147
:101A300080916E0390916F030E94A70540E06C8136
:101A400080916E0390916F030E94A70580916902B7
:101A5000803141F040E06D8180916E0390916F0381
:101A60000E94A70580916E0390916F030E94160655
:101A700069E672E080916E0390916F030E94E90520
:101A80004091680368E480916E0390916F030E9417
:101A9000A70564E170E080E090E00E94AD048091D1
:101AA0006803882331F06AE070E080E090E00E94F3
:101AB000AD0480916E0390916F030E941606809191
:101AC0006903893008F489E080936903893029F13A
:101AD00089E080936903E12CF12C80916C0390E004
:101AE000E816F906D4F46E2DCE0141960E94FE0A46
:101AF000D0906903CE0141960E943E0B8D1518F4DB
:101B00008091690304C0CE0141960E943E0B8093F0
:101B100069032FEFE21AF20AE0CF0E94E704609314
:101B20006502709366028093670290936802E09169
:101B3000CF02F091D00282E08083E091CB02F0915D
:101B4000CC0283E08083E091CD02F091CE0280E46C
:101B500080831092D702E091D302F091D40286E004
:101B60008083E091D102F091D202808180618083F4
:101B7000E091D102F091D202808188608083E0916F
:101B8000D102F091D202808180688083E091D102FD
:101B9000F091D20280818F7D80832AE040E659E077
:101BA00060E070E0C8010E944703609164024AE06F
:101BB000CE0141960E9474036CE671E0CE014A9614
:101BC0000E94A103BE016F5E7F4FCE014A960E9424
:101BD000C00969E771E00E94A709B8010E94C00925
:101BE0006CE771E00E94A7090E94350B42E050E0CB
:101BF00062E471E08FEB92E00E941A01CE014A96F6
:101C00000E941203CE0141960E941203C8010E9455
:101C1000120361E9E62E61E0F62E74E9C72E71E049
:101C2000D72E0E94E704DC01CB0157E0B695A795BB
:101C3000979587955A95D1F7BC0167707727809162
:101C4000730281110AC08091640290E09093720245
:101C50008093710281E080937302809100019091E2
:101C600001016817790709F481C27093010160933B
:101C700000018091640290E06817790709F076C24C
:101C80008091A002882309F471C280917B0288238D
:101C900041F110927B024DE150E06CE772E08CE57F
:101CA00093E00E941A0184E891E09F938F934DB7CF
:101CB0005EB74D5151090FB6F8945EBF0FBE4DBFD0
:101CC000ADB7BEB711968DE1ECE7F2E001900D9251
:101CD0008A95E1F70E94D6070FB6F894DEBF0FBED3
:101CE000CDBF809171029091720201979093720220
:101CF0008093710297FF3AC287E090E0909372025E
:101D00008093710240E150E060E270E0C8010E94FF
:101D1000B51961E081E10E940E0465E070E080E0A9
:101D200090E00E94AD0445E0A42EB12C412C512C32
:101D300032018EE00E949604BC01990F880B990B2A
:101D40000E9473159B01AC01C301B2010E94A4164D
:101D50002B013C0191E0A91AB10859F760E081E13B
:101D60000E940E0420E030E040EA50E4C301B201DA
:101D70000E941017AB01BC0120E0CE01805C9F4F98
:101D80000E94170361E081E10E940E0465E070E0AB
:101D900080E090E00E94AD0435E0A32EB12C412CF0
:101DA000512C32018FE00E949604BC01990F880BE0
:101DB000990B0E9473159B01AC01C301B2010E94F3
:101DC000A4162B013C01A1E0AA1AB10859F760E062
:101DD00081E10E940E0420E030E040EA50E4C301BB
:101DE000B2010E941017AB01BC0120E0CE01CA96DF
:101DF0000E94170361E081E10E940E0465E070E03B
:101E000080E090E00E94AD0425E0A22EB12C412C90
:101E1000512C320180E10E949604BC01990F880B7D
:101E2000990B0E9473159B01AC01C301B2010E9482
:101E3000A4162B013C01B1E0AB1AB10859F760E0E0
:101E400081E10E940E0420E030E040EA50E4C3014A
:101E5000B2010E941017AB01BC0120E0CE01C49674
:101E60000E94170361E081E10E940E0465E070E0CA
:101E700080E090E00E94AD0495E0A92EB12C412CA9
:101E8000512C32018EE00E949604BC01990F880B00
:101E9000990B0E9473159B01AC01C301B2010E9412
:101EA000A4162B013C0121E0A21AB10859F760E009
:101EB00081E10E940E0420E030E040EA50E4C301DA
:101EC000B2010E941017AB01BC0120E0CE018E963A
:101ED0000E94170380916E0390916F030E94160673
:101EE00040E06CEC80916E0390916F030E94A70517
:101EF0004091680364E480916E0390916F030E94A7
:101F0000A70580916A03811181C161E081E10E948E
:101F10000E0465E070E080E090E00E94AD0460E0B7
:101F2000CE014A960E94FE0A8111AFC1812C912CEC
:101F3000AEEFAA2EA2ECBA2E60E081E10E940E0460
:101F400020E0B501A401CE0188960E94170361E04C
:101F500082E00E940E0465E070E080E090E00E9464
:101F6000AD0445E0A42EB12C412C512C320182E16C
:101F70000E949604BC01990F880B990B0E9473155F
:101F80009B01AC01C301B2010E94A4162B013C01CC
:101F900081E0A81AB10859F760E082E00E940E04BF
:101FA00020E030E040EA50E4C301B2010E94101783
:101FB000AB01BC0120E0CE0182960E9417038EE4A3
:101FC00080937C0064E170E080E090E00E94AD04CA
:101FD00035E0A32EB12C412C512C320180917A0096
:101FE000806480937A0080917A0086FDFCCF6091B6
:101FF00078008091790070E0782B072E000C880B18
:10200000990B0E9473159B01AC0160EA7DE589E89C
:1020100099E40E9410179B01AC01C301B2010E9418
:10202000A4162B013C0191E0A91AB108B9F620E0F1
:1020300030E040EA50E4C301B2010E941017AB0146
:10204000BC0120E0CE014A960E94170388EC8093E1
:102050007C0062E070E080E090E00E94AD0425E04A
:10206000A22EB12C412C512C320180917A00806437
:1020700080937A0080917A0086FDFCCF6091780091
:102080008091790070E0782B072E000C880B990B5B
:102090000E94731520E030E84BEA53E40E94A31637
:1020A00020E030E04AE754E40E94AE159B01AC0109
:1020B000C301B2010E94A4162B013C01A1E0AA1A9F
:1020C000B10899F620E030E040EA50E40E94101791
:1020D000AB01BC0120E0CE0141960E9417038DA9FF
:1020E0008F938CA98F938BAD8F938AAD8F9322960C
:1020F0008FAD22978F9321968FAD21978F9388E88C
:1021000091E09F938F931F930F930E94C319809127
:1021100064020FB6F894DEBF0FBECDBFA8018111D7
:1021200000C16FEF8FEF0E94F608CE0141960E942A
:102130001203CE014A960E941203CE0182960E949B
:102140001203CE0188960E941203CE018E960E9441
:102150001203CE01C4960E941203CE01CA960E94B9
:102160001203CE01805C9F4F0E9412037724739468
:102170009DE1692E8CE593E00E944502892B09F4CC
:102180003FC0A3EAB2E082EAA82E82E0B82EF501B1
:102190008D91819332E0EE3BF307D1F78CE593E02C
:1021A0000E9467028093BE029091A2029D3011F7B7
:1021B0009091A3029A30F1F69091BD029D30D1F634
:1021C0008A30C1F68091A5029091A102981720F063
:1021D000909164028913A8C08091A5029091640235
:1021E000891741F22091A80290E0222309F4C7C088
:1021F000FC01E756FD4F3081321708F4C0C0BACF5A
:102200000E9416020ECDF0926803A4CBE091690300
:10221000E950E33040F4F0E0EE0FFF1FE85FFE4FBF
:102220004080518004C0BEEE4B2EB2E05B2E809108
:102230006B03882319F18091680381111FC00E94EC
:10224000E7044B015C01052C000C660877088091BF
:102250006E0390916F030E945405813009F455CEAE
:102260000E94E704DC01CB0184199509A609B7098E
:1022700088159905AA05BB0550F347CEB201550C48
:10228000880B990B0E94AD0440CEBE016F5E7F4F5C
:10229000CE014A960E940B0A882359F1698938E0D9
:1022A000639FB00111248A89282F30E0322F222722
:1022B000330F330F330F262B372B8A8D8031E1F408
:1022C000688D70E08F89AB01481B5109CA01969552
:1022D000982F8827979587950E94821760517109DA
:1022E000207FE3E0220F331FEA95E1F7620F731FAF
:1022F00004C060E874EE01C0B901613854EE75079E
:102300000CF414CE072E000C880B990B0E94731549
:1023100020E030E040E05CE30E94AE154B015C0140
:102320000BCE60E080E0FFCE8093A102DF92CF92DF
:102330002DB73EB72D5131090FB6F8943EBF0FBEF1
:102340002DBFADB7BEB71196E2EAF2E0862D01903F
:102350000D928A95E1F70E94D6070E94E7046093E8
:1023600060027093610280936202909363027092A4
:10237000A0020FB6F894DEBF0FBECDBF2DCFFC017B
:10238000E756FD4F2083809164029091A402981338
:102390001DC0FF92EF924DB75EB74D5151090FB678
:1023A000F8945EBF0FBE4DBFADB7BEB71196E2EA5F
:1023B000F2E0862D01900D928A95E1F70E94D607F2
:1023C0000FB6F894DEBF0FBECDBFD4CEECE7F2E07F
:1023D000D5018D915D018193B0ECAB16B2E0BB06E7
:1023E000B9F770927B02C6CE1092C2021092C1025F
:1023F00088EE93E0A0E0B0E08093C3029093C40223
:10240000A093C502B093C60282E191E09093C0020E
:102410008093BF0285EC90E09093CC028093CB0236
:1024200084EC90E09093CE028093CD0280EC90E01B
:102430009093D0028093CF0281EC90E09093D202EF
:102440008093D10282EC90E09093D4028093D302E7
:1024500086EC90E09093D6028093D5021092D80239
:102460001092D9021092DA021092DB0260E089E049
:102470000E945A04E1EDF1E0E491E0937C03EDEB7E
:10248000F1E0E491F0E0EE0FFF1FE655FE4F85917D
:10249000949190937E0380937D0310928703109212
:1024A000890310928803E7E8F3E0129283E0EF37A4
:1024B000F807D9F78CE793E090936F0380936E034E
:1024C00010926C0310926D031092680389E0809360
:1024D000690381E080936A0380936B0310927B030E
:1024E00010927A0310925F0310925E0388EE93E0DD
:1024F000A0E0B0E08093600390936103A093620337
:10250000B093630384E291E090935D0380935C0356
:102510000895EF920F931F93CF93DF93E80147FD48
:1025200002C034E001C034E1E42F440FFF0BF7FF99
:1025300003C0F195E195F109E32E022F2E2FAE0194
:102540000E94FB12CE01DF91CF911F910F91EF906E
:1025500008952532310520F4223010F00C94B41285
:10256000FA011082CA010895BB27FA01A62F62174B
:10257000710581059105330B30FB66F0AA27660FC4
:10258000771F881F991FAA1FA21710F0A21B63951F
:102590003850A9F7A05DAA3308F0A95DA19336F7DA
:1025A000B111B1931082CA010C94611545325105E5
:1025B00020F4423010F00C94E112FB011082CB01A8
:1025C0000895BB27FB015527AA27880F991FAA1F2B
:1025D000A41710F0A41B83955051B9F7A05DAA333E
:1025E00008F0A95DA193009779F7B111B193119209
:1025F000CB010C9461154F925F926F927F929F92E4
:10260000AF92BF92CF92DF92EF92FF920F931F9300
:10261000CF93DF93CDB7DEB729970FB6F894DEBF1F
:102620000FBECDBF6A01122FB02E2BE3201720F072
:10263000FF24F394F00E02C0BCE3FB2E0F2D27E025
:10264000AE014F5F5F4F0E948914AC018981982FC2
:102650009970913031F0E1FC06C0E0FE06C090E2D6
:1026600005C09DE203C09BE201C090E0EE2DE07149
:1026700083FF3CC0911102C083E001C084E0811758
:1026800018F4212F281B01C020E0E1110BC0F60136
:10269000822F30E2882319F031938150FBCFC20E94
:1026A000D11C20E0992329F0D6019C93F6013196A4
:1026B0006F01C6010396E2FE0AC03EE4D6013C93D8
:1026C00041E411964C93119712963C9306C03EE656
:1026D000F601308341E641833283FC01322F40E230
:1026E000332309F442C041933150FACF82FF44C0F2
:1026F000911102C083E001C084E0811718F4212FFA
:10270000281B01C020E0E1110BC0F601822F30E24E
:10271000882319F031938150FBCFC20ED11C20E0E9
:10272000992329F0D6019C93F60131966F01C601D9
:102730000396E2FE0BC039E4D6013C933EE41196C9
:102740003C93119736E412963C9307C039E6F601A4
:1027500030833EE6318336E63283FC01322F40E29D
:10276000332319F041933150FBCFFC01E20FF11DEF
:1027700010828EEF9FEFB7C0F1E0911101C0F0E041
:102780006F2F70E01416150624F49A012F5F3F4F47
:1027900002C021E030E0260F371FBB2029F06B2D4F
:1027A00070E06F5F7F4F02C060E070E0260F371F60
:1027B000612F70E0261737071CF4121B212F01C070
:1027C00020E03E2D387159F4D601322F60E23323D8
:1027D00019F06D933150FBCFC20ED11C20E0FF23C6
:1027E00031F0D6019C93B6016F5F7F4F6B01E11111
:1027F0000BC0F601922F30E3992319F031939150D9
:10280000FBCFC20ED11C20E09F2D940F3A81782F70
:102810007071A72E84FF03C0313309F4915019164B
:1028200024F4993018F098E001C091E0E42F852F4E
:1028300057FF02C0E0E080E06E2F782FE0E0F0E08C
:10284000AEE29A2E3A01691A71082A01461A570A0D
:102850000B2D10E01195019511096F3F8FEF78074F
:1028600029F4D6019C92C60101966C0146175707C0
:1028700084F0661677066CF47F01E40CF51CA1E089
:10288000B0E0AC0FBD1FEA0EFB1ED7011196BC9045
:1028900002C090E3B92E615071093196C6010196CC
:1028A0007C016017710724F0D601BC926C01D5CF72
:1028B0006417750741F4363320F4353321F4A11041
:1028C00002C081E3B82EF601B082F701822F90E2B8
:1028D000882319F091938150FBCFF701E20FF11D8E
:1028E000108280E090E029960FB6F894DEBF0FBE0C
:1028F000CDBFDF91CF911F910F91FF90EF90DF90AF
:10290000CF90BF90AF909F907F906F905F904F90CF
:102910000895283008F027E03327DA01990F311D98
:1029200087FD916000966105710539F432602E5F74
:102930003D9330E32A95E1F708959F3F30F08038CA
:102940007105610509F03C5F3C5F3D93913008F0F3
:102950008068911DDF93CF931F930F93FF92EF92A7
:10296000192F987F9695E92F96959695E90FFF2751
:10297000EE53FF4F99273327EE24FF24A701E701E9
:1029800005900894079428F4360FE71EF81E491F97
:10299000511D660F771F881F991F0694A1F7059098
:1029A000079428F4E70EF81E491F561FC11D770F24
:1029B000881F991F661F0694A1F70590079428F4B5
:1029C000F80E491F561FC71FD11D880F991F661F7C
:1029D000771F0694A1F70590079420F4490F561F1E
:1029E000C71FD81F990F661F771F881F0694A9F766
:1029F00084911095177041F0D695C79557954795D6
:102A0000F794E7941A95C1F7E8E6F0E0689415901A
:102A1000159135916591959105907FE27395E11837
:102A2000F10A430B560BC90BD009C0F7E10CF11E9C
:102A3000431F561FC91FD01D7EF4703311F48A95B1
:102A4000E6CFE894015030F0080F0AF4002702178F
:102A500008F4202F2395022F7A3328F079E37D9311
:102A60002A95E9F710C07D932A9589F606949795E3
:102A70006795379517951794E118F10A430B560B94
:102A8000C90BD00998F023957E9173957A3308F09D
:102A900070E37C932013B8F77E9170617D9330F0E2
:102AA000839571E37D9370E32A95E1F71124EF900C
:102AB000FF900F911F91CF91DF91992787FD9095FE
:102AC0000895DC01FC01672F71917723E1F73297BC
:102AD00004C07C916D9370836291AE17BF07C8F3F9
:102AE0000895E89409C097FB3EF490958095709501
:102AF00061957F4F8F4F9F4F9923A9F0F92F96E94A
:102B0000BB279395F695879577956795B795F111BE
:102B1000F8CFFAF4BB0F11F460FF1BC06F5F7F4F5B
:102B20008F4F9F4F16C0882311F096E911C077236D
:102B300021F09EE8872F762F05C0662371F096E876
:102B4000862F70E060E02AF09A95660F771F881F45
:102B5000DAF7880F9695879597F908950E94C11521
:102B60000C9432160E94241638F00E942B1620F086
:102B7000952311F00C941B160C94211611240C941F
:102B800066160E94431670F3959FC1F3950F50E0AF
:102B9000551F629FF001729FBB27F00DB11D639F0F
:102BA000AA27F00DB11DAA1F649F6627B00DA11DB5
:102BB000661F829F2227B00DA11D621F739FB00D5B
:102BC000A11D621F839FA00D611D221F749F3327CB
:102BD000A00D611D231F849F600D211D822F762F64
:102BE0006A2F11249F5750409AF0F1F088234AF041
:102BF000EE0FFF1FBB1F661F771F881F91505040AD
:102C0000A9F79E3F510580F00C941B160C94661694
:102C10005F3FE4F3983ED4F3869577956795B79533
:102C2000F795E7959F5FC1F7FE2B880F911D96954D
:102C3000879597F9089597F99F6780E870E060E0BD
:102C400008959FEF80EC089500240A941616170645
:102C500018060906089500240A941216130614068D
:102C600005060895092E0394000C11F4882352F0F0
:102C7000BB0F40F4BF2B11F460FF04C06F5F7F4FA8
:102C80008F4F9F4F089557FD9058440F551F59F08F
:102C90005F3F71F04795880F97FB991F61F09F3F49
:102CA00079F087950895121613061406551FF2CF72
:102CB0004695F1DF08C0161617061806991FF1CFC2
:102CC00086957105610508940895E894BB276627E9
:102CD0007727CB0197F908952F923F924F925F92F9
:102CE0006F927F928F929F92AF92BF92CF92DF921C
:102CF000EF92FF920F931F93CF93DF93CDB7DEB781
:102D0000CA1BDB0B0FB6F894DEBF0FBECDBF099414
:102D10002A88398848885F846E847D848C849B846B
:102D2000AA84B984C884DF80EE80FD800C811B8179
:102D3000AA81B981CE0FD11D0FB6F894DEBF0FBEA8
:102D4000CDBFED0108955058BB27AA270E94BB169E
:102D50000C9432160E94241638F00E942B1620F094
:102D600039F49F3F19F426F40C9421160EF4E095E3
:102D7000E7FB0C941B16E92F0E94431658F3BA1771
:102D8000620773078407950720F079F4A6F50C9481
:102D900065160EF4E0950B2EBA2FA02D0B01B9018C
:102DA00090010C01CA01A0011124FF27591B99F0C1
:102DB000593F50F4503E68F11A16F040A22F232FCD
:102DC000342F4427585FF3CF469537952795A7951D
:102DD000F0405395C9F77EF41F16BA0B620B730BC4
:102DE000840BBAF09150A1F0FF0FBB1F661F771F35
:102DF000881FC2F70EC0BA0F621F731F841F48F4EA
:102E0000879577956795B795F7959E3F08F0B0CF72
:102E10009395880F08F09927EE0F97958795089559
:102E20000E9424170C9432160E942B1658F00E9410
:102E3000241640F029F45F3F29F00C941B16511121
:102E40000C9466160C9421160E94431668F399237D
:102E5000B1F3552391F3951B550BBB27AA27621796
:102E60007307840738F09F5F5F4F220F331F441FA3
:102E7000AA1FA9F335D00E2E3AF0E0E832D09150D7
:102E80005040E695001CCAF72BD0FE2F29D0660FC4
:102E9000771F881FBB1F261737074807AB07B0E807
:102EA00009F0BB0B802DBF01FF2793585F4F3AF00D
:102EB0009E3F510578F00C941B160C9466165F3FEC
:102EC000E4F3983ED4F3869577956795B795F79593
:102ED0009F5FC9F7880F911D9695879597F908957B
:102EE000E1E0660F771F881FBB1F62177307840717
:102EF000BA0720F0621B730B840BBA0BEE1F88F726
:102F0000E095089597FB072E16F4009407D077FDFF
:102F100009D00E94961707FC05D03EF49095819544
:102F20009F4F0895709561957F4F0895AA1BBB1B15
:102F300051E107C0AA1FBB1FA617B70710F0A61BB9
:102F4000B70B881F991F5A95A9F780959095BC01DA
:102F5000CD010895EE0FFF1F0590F491E02D099427
:102F6000CF93DF938230910510F482E090E0E091FE
:102F70008C03F0918D0320E030E0C0E0D0E030978A
:102F800011F14081518148175907C0F0481759077E
:102F900061F482819381209719F09B838A832BC0EF
:102FA00090938D0380938C0326C02115310519F071
:102FB0004217530718F49A01BE01DF01EF010280A6
:102FC000F381E02DDCCF2115310509F1281B390BE8
:102FD0002430310590F412968D919C9113976115D0
:102FE000710521F0FB019383828304C090938D03CC
:102FF00080938C03FD01329644C0FD01E20FF31F64
:1030000081939193225031092D933C933AC02091A2
:103010008A0330918B03232B41F4209104013091DA
:10302000050130938B0320938A0320910201309194
:1030300003012115310541F42DB73EB7409106013A
:1030400050910701241B350BE0918A03F0918B030B
:10305000E217F307A0F42E1B3F0B2817390778F06F
:10306000AC014E5F5F4F2417350748F04E0F5F1FCE
:1030700050938B0340938A038193919302C0E0E0C5
:10308000F0E0CF01DF91CF9108950F931F93CF937D
:10309000DF93009709F48CC0FC01329713821282EF
:1030A00000918C0310918D030115110581F420818D
:1030B0003181820F931F20918A0330918B0328174F
:1030C000390779F5F0938B03E0938A0371C0D80137
:1030D00040E050E0AE17BF0750F412962D913C919E
:1030E0001397AD012115310509F1D901F3CF9D01E8
:1030F000DA013383228360817181860F971F8217E3
:10310000930769F4EC0128813981260F371F2E5F60
:103110003F4F318320838A819B8193838283452B18
:1031200029F4F0938D03E0938C0342C01396FC9333
:10313000EE931297ED01499159919E01240F351F8D
:10314000E217F30771F480819181840F951F029635
:1031500011969C938E938281938113969C938E9368
:103160001297E0E0F0E0D80112968D919C911397B0
:10317000009719F0F8018C01F6CF8D919C91980180
:103180002E5F3F4F820F931F20918A0330918B0354
:103190002817390769F4309729F410928D0310929B
:1031A0008C0302C01382128210938B0300938A0354
:1031B000DF91CF911F910F910895A0E0B0E0E3EE71
:1031C000F8E10C947016EC01009721F4CB010E94F9
:1031D000B017B8C0FC01E60FF71F9C01225031095F
:1031E000E217F30708F4ACC0D9010D911C911197B7
:1031F00006171707B0F00530110508F49FC0C80185
:1032000004978617970708F499C002501109061B06
:10321000170B019311936D937C93CF010E94451876
:103220008DC05B01A01AB10A4C01800E911EA091C5
:103230008C03B0918D0340E050E0E12CF12C10970D
:1032400009F44AC0A815B905D1F56D907C90119785
:10325000630182E0C80ED11CCA14DB0480F1A30113
:103260004A195B096A0182E0C80ED11C1296BC9013
:1032700012971396AC91B5E0CB16D10440F0B28210
:10328000A38351834083D9016D937C930AC00E5F61
:103290001F4FC301800F911FF90191838083EB2D94
:1032A000FA2FE114F10431F0D7011396FC93EE9359
:1032B000129744C0F0938D03E0938C033FC08D912F
:1032C0009C9111974817590708F4AC017D0112969B
:1032D0000D90BC91A02DB3CF80918A0390918B0368
:1032E00088159905E1F446175707C8F48091020143
:1032F00090910301009741F48DB79EB7409106016C
:1033000050910701841B950BE817F907C8F4F09357
:103310008B03E0938A03F901718360830FC0CB01B3
:103320000E94B0177C01009759F0A801BE010E94CD
:10333000AC19CE010E944518C70104C0CE0102C0DD
:1033400080E090E0CDB7DEB7EEE00C948C1681E023
:1033500090E0F8940C94641CFB01DC0102C0019025
:103360000D9241505040D8F70895DC0101C06D9393
:1033700041505040E0F70895FB01DC0101900D92AF
:103380000020E1F70895AEE0B0E0E9ECF9E10C943B
:103390007A160D891E8986E08C831A8309838FEF44
:1033A0009FE79E838D83AE01475E5F4F6F89788D67
:1033B000CE0101960E94E6192F813885F801E20FAF
:1033C000F31F10822E96E4E00C949616ACE0B0E069
:1033D000ECEEF9E10C946C167C016B018A01FC01A6
:1033E00017821682838181FFBDC1CE0101964C01F7
:1033F000F7019381F60193FD859193FF81916F0110
:10340000882309F4ABC1853239F493FD859193FF8C
:1034100081916F01853229F4B70190E00E94CE1BA3
:10342000E7CF512C312C20E02032A0F48B3269F010
:1034300030F4803259F0833269F420612CC08D322F
:1034400039F0803339F4216026C02260246023C023
:10345000286021C027FD27C030ED380F3A3078F4BE
:1034600026FF06C0FAE05F9E300D1124532E13C0D4
:103470008AE0389E300D1124332E20620CC08E322B
:1034800021F426FD6BC1206406C08C3611F420683F
:1034900002C0883641F4F60193FD859193FF819136
:1034A0006F018111C1CF982F9F7D9554933028F4DF
:1034B0000C5F1F4FFFE3F9830DC0833631F0833774
:1034C00071F0833509F05BC022C0F80180818983E7
:1034D0000E5F1F4F44244394512C540115C03801F2
:1034E000F2E06F0E711CF801A080B18026FF03C0CE
:1034F000652D70E002C06FEF7FEFC5012C870E9441
:10350000C31B2C0183012C852F77222E17C0380175
:10351000F2E06F0E711CF801A080B18026FF03C09D
:10352000652D70E002C06FEF7FEFC5012C870E9410
:10353000B81B2C012C852068222E830123FC1BC084
:10354000832D90E048165906B0F4B70180E290E070
:103550000E94CE1B3A94F4CFF50127FC859127FEFB
:1035600081915F01B70190E00E94CE1B31103A9427
:10357000F1E04F1A51084114510471F7E5C0843647
:1035800011F0893639F5F80127FF07C06081718194
:10359000828193810C5F1F4F08C060817181072E6B
:1035A000000C880B990B0E5F1F4F2F76722E97FF22
:1035B00009C090958095709561957F4F8F4F9F4F73
:1035C0002068722E2AE030E0A4010E94061CA82E7A
:1035D000A81844C0853729F42F7EB22E2AE030E0A7
:1035E00025C0F22FF97FBF2E8F36C1F018F4883531
:1035F00079F0B4C0803719F0883721F0AFC02F2F91
:103600002061B22EB4FE0DC08B2D8460B82E09C08F
:1036100024FF0AC09F2F9660B92E06C028E030E034
:1036200005C020E130E002C020E132E0F801B7FE41
:1036300007C060817181828193810C5F1F4F06C03A
:103640006081718180E090E00E5F1F4FA4010E94B5
:10365000061CA82EA818FB2DFF777F2E76FE0BC028
:10366000372D3E7FA51450F474FE0AC072FC08C0CA
:10367000372D3E7E05C0BA2C372D03C0BA2C01C0B1
:10368000B52C34FF0DC0FE01EA0DF11D80818033A1
:1036900011F4397E09C032FF06C0B394B39404C05C
:1036A000832F867809F0B39433FD13C030FF06C032
:1036B0005A2CB31418F4530C5B18B32CB31468F4DD
:1036C000B70180E290E03C870E94CE1BB3943C851A
:1036D000F5CFB31410F43B1801C0312C34FF12C0E5
:1036E000B70180E390E03C870E94CE1B3C8532FF0F
:1036F00017C031FD03C088E790E002C088E590E084
:10370000B7010CC0832F867859F031FF02C08BE2DD
:1037100001C080E237FD8DE2B70190E00E94CE1B30
:10372000A51438F4B70180E390E00E94CE1B5A94B0
:10373000F7CFAA94F401EA0DF11D8081B70190E062
:103740000E94CE1BA110F5CF332009F451CEB70152
:1037500080E290E00E94CE1B3A94F6CFF70186817A
:10376000978102C08FEF9FEF2C96E2E10C948816B0
:10377000FC010590615070400110D8F7809590953C
:103780008E0F9F1F0895FC01615070400190011041
:10379000D8F7809590958E0F9F1F08950F931F93D4
:1037A000CF93DF93FB01238121FD03C08FEF9FEFB8
:1037B00028C022FF16C046815781248135814217D7
:1037C000530744F4A081B1819D012F5F3F4F3183A6
:1037D00020838C93268137812F5F3F4F3783268349
:1037E00010C0EB01092F182F0084F185E02D0995F9
:1037F000892BE1F68E819F8101969F838E83812F95
:10380000902FDF91CF911F910F910895FA01AA2770
:10381000283051F1203181F1E8946F936E7F6E5F13
:103820007F4F8F4F9F4FAF4FB1E03ED0B4E03CD0C1
:10383000670F781F891F9A1FA11D680F791F8A1FA4
:10384000911DA11D6A0F711D811D911DA11D20D00B
:1038500009F468943F912AE0269F11243019305DC5
:103860003193DEF6CF010895462F4770405D4193B6
:10387000B3E00FD0C9F7F6CF462F4F70405D4A3303
:1038800018F0495D31FD4052419302D0A9F7EACFCB
:10389000B4E0A6959795879577956795BA95C9F7FA
:1038A00000976105710508959B01AC010A2E0694ED
:1038B0005795479537952795BA95C9F7620F731FA6
:1038C000841F951FA01D089510E0CFEED0E004C026
:1038D000FE010E94AA172196C03FD107C9F7F894AC
:0238E000FFCF18
:1038E200070000008E0380005E00BC00770100002C
:1038F2000000AD011A014501F4017601540168018D
:103902000000000082021A01BC027D024502670229
:1039120054024E6F64652D00205B005D3A00203E2C
:1039220020000D0A00545800556E61626C652074C7
:103932006F2066696E6420616464726573732066C9
:103942006F722044657669636520300048433132E6
:103952002052584E6F64652800295B0020382D4E96
:103962002D315D00524C590025732D25732D257381
:083972000052580053594E00A9
:00000001FF
